:100000000C9463000C948B000C948B000C948B006C
:100010000C948B000C948B000C948B000C948B0034
:100020000C948B000C948B000C948B000C9451035B
:100030000C948B000C948B000C948B000C948B0014
:100040000C940F040C948B000C94AF050C940106D7
:100050000C948B000C948B000C948B000C948B00F4
:100060000C948B000C948B000000000024002700EF
:100070002A0000000000250028002B0000000000DE
:1000800023002600290004040404040404040202DA
:100090000202020203030303030301020408102007
:1000A0004080010204081020010204081020000012
:1000B0000007000201000003040600000000000029
:1000C0000000BE00700711241FBECFEFD8E0DEBFD6
:1000D000CDBF11E0A0E0B1E0E4ECF1E102C0059099
:1000E0000D92A631B107D9F711E0A6E1B1E001C048
:1000F0001D92A83FB107E1F710E0C6ECD0E004C0C4
:100100002297FE010E94DC08C23CD107C9F70E9479
:10011000C7070C94E0080C940000FB019F01E894D1
:100120004230C4F04532B4F44A3029F497FB1EF44F
:10013000909581959F4F642F77270E94C608805D18
:100140008A330CF0895D8193CB010097A1F716F4F7
:100150005DE251931082C9010C94AE00DC01FC01F8
:10016000672F71917723E1F7329704C07C916D93EB
:1001700070836291AE17BF07C8F308958CE191E0D8
:100180000E940D0208958EE00E94F9049C018D5991
:1001900093400B9718F421E030E01AC0C90185574D
:1001A00093400B9718F422E030E012C0C901875F3A
:1001B00092400B9718F423E030E00AC0285B3240ED
:1001C0002B30310518F020E030E002C024E030E0B0
:1001D000C9010895DF93CF9300D0CDB7DEB79C015E
:1001E00080E389838A832230310551F02330310541
:1001F00061F021303105B1F484E6898383E603C0E0
:1002000084E689838FE68A830DC083E689838091A3
:10021000160190911701BE016E5F7F4F4AE050E0DA
:100220000E948D00E091D601F091D7010280F38108
:10023000E02D86ED91E0BE016F5F7F4F42E050E020
:1002400009950F900F90CF91DF9108958CE191E087
:1002500060E070E00E94630281E090E00E94EA00AA
:1002600008958CE191E064EB70E00E94630282E00B
:1002700090E00E94EA0008950F931F93CF93DF93BD
:100280008C0180E3F8018083818386ED91E00E94F8
:10029000C306892BD9F064E670E080E090E00E940C
:1002A0006504C0E0D0E086ED91E00E94C306892B92
:1002B00069F0C230D10551F086ED91E00E94F70659
:1002C000F801EC0FFD1F80832196EDCFDF91CF91D8
:1002D0001F910F9108951F9311E01093030188E07F
:1002E00061E00E945A0564EF71E080E090E00E94B6
:1002F000650488E060E00E945A050E943101109375
:1003000002010E94570460931801709319018093B1
:100310001A0190931B011F910895CF93DF93EC0175
:100320008881803351F0853641F48981863629F4FD
:100330000E946B0180E388838983DF91CF910895C8
:1003400080E091E00E943C0180E091E00E948D01FC
:100350000E94C3009093170180931601009771F0DB
:1003600080910201882351F083E090E00E94EA002E
:100370001092170110921601109202018091030150
:100380008823B9F00E945704209118013091190177
:1003900040911A0150911B01621B730B840B950B4A
:1003A000685873418040904020F00E9426011092CE
:1003B000030108951F9388E061E00E941B058EE011
:1003C00060E00E941B058CE191E063E070E00E9418
:1003D0004A0386ED91E040E855E260E070E00E945B
:1003E0003C060E94260110E088E061E00E945A0568
:1003F00064E670E080E090E00E94650488E060E0E0
:100400000E945A0564E670E080E090E00E94650476
:100410001F5F153049F71F910895FC0180911F015E
:100420008C3090F480838F5F80931F01815090E027
:10043000FC01EE0FFF1FE80FF91FE05EFE4F88EB97
:100440009BE09283818308958FEF80830895FC0160
:1004500020812C30B8F58181992787FD909548E857
:1004600050E0481B590B440F551F440F551F64178C
:10047000750784F08281992787FD909548E552E0C1
:10048000481B590B440F551F440F551F6417750720
:100490000CF4AB0142505040CA01AA2797FDA09529
:1004A000BA2F880F991FAA1FBB1F4FB7F89430E0CF
:1004B000F901EE0FFF1FE20FF31FE05EFE4F928384
:1004C00081834FBF0895AF92BF92CF92DF92EF9298
:1004D000FF920F931F93CF93DF93EC019B0182E078
:1004E000603278070CF048C077FF03C020E030E0AE
:1004F00005C0653B710514F024EB30E000D000D05E
:10050000B901882777FD8095982F2981332727FD0A
:100510003095E8E8AE2EB12CA21AB30AAA0CBB1C87
:10052000AA0CBB1CCC24B7FCC094DC2CEA81FF27AE
:10053000E7FDF09528E532E02E1B3F0B220F331F1D
:10054000220F331F442737FD4095542FEDB7FEB7D8
:10055000218332834383548320E030E040E050E045
:1005600004EBE02EF12C012D112D0E9402089B01BD
:100570000F900F900F900F90CE01B9010E942702AB
:10058000DF91CF911F910F91FF90EF90DF90CF906F
:10059000BF90AF900895CF92DF92EF92FF921F939A
:1005A000CF93DF93EC01162F7A01690188818C309B
:1005B00008F064C0862F61E00E941B05888190E0EE
:1005C000FC01EE0FFF1FE80FF91FE05EFE4F1F73E7
:1005D0008081807C812B808380E292E08E199F094C
:1005E00064E070E00E947608698380E699E08C19E7
:1005F0009D0964E070E00E9476086A83A8818A2FD2
:100600006CE00E946A08682F70E0AB01440F551F30
:10061000460F571F440F551F440F551F20E030E071
:10062000C901840F951FFC01EE0FFF1FE80FF91F92
:10063000E05EFE4F808186FD15C02F5F3F4F2C305E
:10064000310571F724C01092800082E08093810010
:100650001092850010928400B19A80916F008260A0
:1006600080936F008A2F90E0FC01EE0FFF1FE80FD0
:10067000F91FE05EFE4F8081806480838881DF9176
:10068000CF911F91FF90EF90DF90CF900895672B4F
:10069000D1F2E8CF40E252E020E639E00E94CB02FE
:1006A00008951F920F920FB60F9211242F933F932C
:1006B0004F935F936F937F938F939F93AF93BF936A
:1006C000EF93FF938091440187FF05C0109285004E
:1006D000109284002BC020914401332727FD3095D0
:1006E00080911F0190E02817390704F5809144019B
:1006F000992787FD9095FC01EE0FFF1FE80FF91F6A
:10070000E05EFE4F808186FF11C0809144019927F1
:1007100087FD9095FC01EE0FFF1FE80FF91FE05ECB
:10072000FE4F80818F7360E00E945A0580914401E2
:100730008F5F8093440120914401332727FD30953A
:1007400080911F0190E0281739070CF04EC080916E
:1007500044018C300CF049C0209184003091850018
:1007600080914401992787FD9095FC01EE0FFF1FB2
:10077000E80FF91FE05EFE4F81819281280F391F3B
:10078000309389002093880080914401992787FD48
:100790009095FC01EE0FFF1FE80FF91FE05EFE4F82
:1007A000808186FF2BC080914401992787FD909519
:1007B000FC01EE0FFF1FE80FF91FE05EFE4F808186
:1007C0008F7361E00E945A0519C080E49CE905C05E
:1007D0008091840090918500049690938900809385
:1007E00088008FEF8093440109C08091840090912C
:1007F0008500049680549C4940F3EACFFF91EF9125
:10080000BF91AF919F918F917F916F915F914F9128
:100810003F912F910F900FBE0F901F9018951F9230
:100820000F920FB60F9211242F933F938F939F93A4
:10083000AF93BF938091490190914A01A0914B01E0
:10084000B0914C0130914D010196A11DB11D232F96
:100850002D5F2D3720F02D570196A11DB11D20933E
:100860004D018093490190934A01A0934B01B093AD
:100870004C018091450190914601A0914701B091B2
:1008800048010196A11DB11D809345019093460139
:10089000A0934701B0934801BF91AF919F918F9171
:1008A0003F912F910F900FBE0F901F9018958FB70B
:1008B000F8942091490130914A0140914B015091A7
:1008C0004C018FBFB901CA0108959B01AC017FB7EC
:1008D000F8948091450190914601A0914701B09113
:1008E000480166B5A89B05C06F3F19F00196A11D90
:1008F000B11D7FBFBA2FA92F982F8827860F911D72
:10090000A11DB11D62E0880F991FAA1FBB1F6A9528
:10091000D1F7BC012DC0FFB7F894809145019091AB
:100920004601A0914701B0914801E6B5A89B05C0DA
:10093000EF3F19F00196A11DB11DFFBFBA2FA92FDE
:10094000982F88278E0F911DA11DB11DE2E0880F01
:10095000991FAA1FBB1FEA95D1F7861B970B885ECC
:100960009340C8F2215030404040504068517C4F85
:10097000211531054105510571F60895789484B526
:10098000826084BD84B5816084BD85B5826085BD8B
:1009900085B5816085BDEEE6F0E080818160808371
:1009A000E1E8F0E010828081826080838081816054
:1009B0008083E0E8F0E0808181608083E1EBF0E01B
:1009C000808184608083E0EBF0E0808181608083BF
:1009D000EAE7F0E0808184608083808182608083A8
:1009E0008081816080838081806880831092C100D3
:1009F0000895982F8E3008F09E50977080910401D2
:100A00008295880F880F807C892B80937C00809151
:100A10007A00806480937A0080917A0086FDFCCF12
:100A20002091780040917900942F80E030E0282BCD
:100A3000392BC9010895CF93DF93482F50E0CA01A5
:100A400086569F4FFC0134914A575F4FFA018491BB
:100A5000882369F190E0880F991FFC01E859FF4F46
:100A6000A591B491FC01EE58FF4FC591D491662336
:100A700051F42FB7F8948C91932F909589238C93F0
:100A8000888189230BC0623061F42FB7F8948C9170
:100A9000932F909589238C938881832B88832FBFF4
:100AA00006C09FB7F8948C91832B8C939FBFDF91E6
:100AB000CF910895482F50E0CA0182559F4FFC0105
:100AC0002491CA0186569F4FFC0194914A575F4F6B
:100AD000FA013491332309F440C0222351F1233029
:100AE00071F0243028F42130A1F0223011F514C027
:100AF0002630B1F02730C1F02430D9F404C0809101
:100B000080008F7703C0809180008F7D809380006C
:100B100010C084B58F7702C084B58F7D84BD09C0B5
:100B20008091B0008F7703C08091B0008F7D80935B
:100B3000B000E32FF0E0EE0FFF1FEE58FF4FA5913E
:100B4000B4912FB7F894662321F48C919095892362
:100B500002C08C91892B8C932FBF089508951F920A
:100B60000F920FB60F9211242F933F934F938F93B1
:100B70009F93EF93FF938091C00082FD1DC0409131
:100B8000C60020918E0130918F012F5F3F4F2F7350
:100B9000307080919001909191012817390771F080
:100BA000E0918E01F0918F01E25BFE4F4083309324
:100BB0008F0120938E0102C08091C600FF91EF91BA
:100BC0009F918F914F913F912F910F900FBE0F905A
:100BD0001F901895E091E201F091E301E05CFF4F76
:100BE0008191919120813181805C9F4F821B930B79
:100BF00060E470E00E947608892B11F00E94AE0537
:100C000008951F920F920FB60F9211242F933F93C6
:100C10008F939F93EF93FF932091D2013091D30153
:100C20008091D4019091D5012817390731F4809132
:100C3000C1008F7D8093C10014C0E091D401F09178
:100C4000D501EE56FE4F20818091D4019091D501BF
:100C500001968F7390709093D5018093D401209367
:100C6000C600FF91EF919F918F913F912F910F902F
:100C70000FBE0F901F901895AF92BF92DF92EF9228
:100C8000FF920F931F93CF93DF93EC017A018B01B7
:100C9000DD24403081EE580780E0680780E0780767
:100CA00011F0DD24D39491E0A92EB12CEC89FD89BB
:100CB000DD2069F0C50108A002C0880F991F0A94C1
:100CC000E2F7808360E079E08DE390E005C0108278
:100CD00060E874E88EE190E0A80197010E9489081D
:100CE00021503040404050405695479537952795C4
:100CF00080E12030380720F0DD2011F0DD24D6CF50
:100D0000E889F9893083EA89FB89208319A2EE8971
:100D1000FF89408121E030E0C9010C8C02C0880FBE
:100D2000991F0A94E2F7482B4083EE89FF8940819E
:100D3000C9010D8C02C0880F991F0A94E2F7482B55
:100D40004083EE89FF894081C9010E8C02C0880F63
:100D5000991F0A94E2F7482B4083EE89FF8980812E
:100D60000F8C02C0220F331F0A94E2F7209528232C
:100D70002083DF91CF911F910F91FF90EF90DF9033
:100D8000BF90AF900895DC011C96ED91FC911D97EA
:100D9000E05CFF4F8191919120813181805C9F4F78
:100DA000821B930B60E470E00E9476080895DC01DA
:100DB0001C96ED91FC911D97E05CFF4F20813181E5
:100DC000E054F040DF01AE5BBF4F8D919C911197D5
:100DD0002817390719F42FEF3FEF07C08D919C9129
:100DE000E80FF91F8081282F30E0C9010895DC0148
:100DF0001C96ED91FC911D97E05CFF4F20813181A5
:100E0000E054F040DF01AE5BBF4F8D919C91119794
:100E10002817390719F42FEF3FEF10C08D919C91DF
:100E20001197E80FF91F20818D919C9111970196E0
:100E30008F73907011969C938E9330E0C901089542
:100E4000DC0191968C919197882339F05496ED911D
:100E5000FC915597808186FFF9CF91961C92089559
:100E6000CF93DF93EC01EE85FF85E05CFF4F20819F
:100E70003181E054F0402F5F3F4F2F733070DF011E
:100E8000AE5BBF4F8D919C91119728173907D1F315
:100E9000E05CFF4F80819181E054F040E80FF91F42
:100EA0006083EE85FF85E05CFF4F31832083EE8910
:100EB000FF89208181E090E00F8C02C0880F991F8C
:100EC0000A94E2F7282B208381E089A3EC89FD892D
:100ED00080818064808381E090E0DF91CF910895EC
:100EE0001092D9011092D80188EE93E0A0E0B0E012
:100EF0008093DA019093DB01A093DC01B093DD01D4
:100F000089E091E09093D7018093D6018EE491E03F
:100F10009093E3018093E20182E991E09093E501EF
:100F20008093E40185EC90E09093E7018093E601E3
:100F300084EC90E09093E9018093E80180EC90E0EC
:100F40009093EB018093EA0181EC90E09093ED01A6
:100F50008093EC0182EC90E09093EF018093EE019E
:100F600086EC90E09093F1018093F00184E080930F
:100F7000F20183E08093F30187E08093F40185E040
:100F80008093F50181E08093F60108950895CF9351
:100F9000DF930E94BE040E94C6070E94DA01CAEED7
:100FA000D5E00E94A0012097E1F30E94EA05F9CF65
:100FB000CF92DF92EF92FF920F931F93CF93DF9325
:100FC0007C016B018A01C0E0D0E00FC0D6016D91B9
:100FD0006D01D701ED91FC910190F081E02DC701E9
:100FE0000995C80FD91F015010400115110571F75F
:100FF000CE01DF91CF911F910F91FF90EF90DF9085
:10100000CF9008952F923F924F925F926F927F926E
:101010008F929F92AF92BF92CF92DF92EF92FF9208
:101020000F931F93DF93CF93CDB7DEB73B014C01F6
:1010300019012A016D897E898F89988D6A197B092A
:101040008C099D09621A730A840A950AA401930106
:101050000E944B08E218F30804091509A80197013A
:101060000E94AB082A0D3B1D4C1D5D1DB901CA0134
:10107000CF91DF911F910F91FF90EF90DF90CF9074
:10108000BF90AF909F908F907F906F905F904F90A8
:101090003F902F900895629FD001739FF001829F2F
:1010A000E00DF11D649FE00DF11D929FF00D839FF7
:1010B000F00D749FF00D659FF00D9927729FB00D94
:1010C000E11DF91F639FB00DE11DF91FBD01CF01A7
:1010D00011240895991B79E004C0991F961708F010
:1010E000961B881F7A95C9F78095089597FB092E5E
:1010F00007260AD077FD04D049D006D000201AF484
:10110000709561957F4F0895F6F7909581959F4F63
:101110000895A1E21A2EAA1BBB1BFD010DC0AA1F38
:10112000BB1FEE1FFF1FA217B307E407F50720F050
:10113000A21BB30BE40BF50B661F771F881F991FCB
:101140001A9469F760957095809590959B01AC0114
:10115000BD01CF01089597FB092E05260ED057FD3E
:1011600004D0D7DF0AD0001C38F450954095309554
:1011700021953F4F4F4F5F4F0895F6F7909580951B
:10118000709561957F4F8F4F9F4F0895AA1BBB1B92
:1011900051E107C0AA1FBB1FA617B70710F0A61B77
:1011A000B70B881F991F5A95A9F780959095BC0198
:1011B000CD010895EE0FFF1F0590F491E02D0994E5
:0411C000F894FFCFD1
:1011C4003030010101000000003007D807C306F7E2
:0611D40006D7062007000B
:00000001FF
