:100000000C9464000C948C000C948C000C948C0068
:100010000C948C000C948C000C948C000C948C0030
:100020000C948C000C948C000C948C000C948C0020
:100030000C948C000C948C000C948C000C948C0010
:100040000C948E090C948C000C948B0B0C94DD0B8F
:100050000C948C000C948C000C948C000C948C00F0
:100060000C94DC060C948C00000000002400270097
:100070002A0000000000250028002B0000000000DE
:1000800023002600290004040404040404040202DA
:100090000202020203030303030301020408102007
:1000A0004080010204081020010204081020000012
:1000B0000007000201000003040600000000000029
:1000C00000000801DD054C0D11241FBECFEFD8E064
:1000D000DEBFCDBF11E0A0E0B1E0EEE7FEE102C07F
:1000E00005900D92A237B107D9F713E0A2E7B1E06E
:1000F00001C01D92A131B107E1F710E0C8ECD0E0DA
:1001000004C02297FE010E94390FC23CD107C9F7F3
:100110000E94A30D0C943D0F0C94000020913D0112
:1001200030913E018FEF2F3F380781F08091980189
:10013000909199012817390749F030933B0120939A
:100140003A0110929B0110923C01089580912A017E
:1001500090912B018F5F9F4FD9F420E04FEF5FEF1D
:1001600014C0828193818193919331E0E033F3074E
:10017000C1F75183408380912A0190912B018F5FB9
:100180009F4F31F42F5F243019F0EAE2F1E0E9CF1C
:1001900080912A0190912B0190933B0180933A0129
:1001A0008F5F9F4F91F0EAE2F1E08281938181932A
:1001B000919331E0E033F307C1F78FEF9FEF918325
:1001C000808310929B0110923C010895DF93CF939E
:1001D00000D0CDB7DEB720E329832A83019721F42D
:1001E00085E6898386E68A83E091EF02F091F0024A
:1001F0000280F381E02D8FEE92E0BE016F5F7F4FB2
:1002000042E050E009950F900F90CF91DF91089553
:10021000EF92FF920F931F93609128017091290133
:1002200082E791E048E050E02AE030E009E010E0A9
:10023000EBE0EE2EF12C0E9468058CE891E067E27D
:1002400040E122E00E946D081F910F91FF90EF9016
:100250000895EF92FF921F93DF93CF9300D0CDB715
:10026000DEB78FEE92E00E949F0C892BD1F180E3E4
:1002700089838A8364E670E080E090E00E94E4096C
:1002800010E07E010894E11CF11C09C08FEE92E0A1
:100290000E94D30CF701E10FF11D80831F5F8FEEE9
:1002A00092E00E949F0C892B89F78981843671F432
:1002B0008A818F3619F410929A0113C0833689F41B
:1002C00081E080939A0180933F010BC0833649F40B
:1002D0008A81992787FD9095C09790933E018093DE
:1002E0003D010F900F90CF91DF911F91FF90EF9004
:1002F00008950F931F930CE811E0C80160E071E0CE
:100300000E94B10EC80160E041E00E94F20868EB73
:100310007BE080E090E00E94E409C8010E94290986
:100320001F910F9108950F931F930CE811E0C801DE
:100330000E942909C80160E040E00E94F208C8015B
:1003400068E071E00E94B10E60919801709199018E
:10035000C8014AE050E00E949E0E1F910F9108953F
:100360008FE00E94820A9C01855590400B9718F4FB
:1003700024E030E024C0C9018D5491400D97D0F0A5
:10038000C9018F5A90400B97A8F0C901895F91402D
:100390000B9798F0C901825991400B9770F02E5934
:1003A00032402432310518F02FEF3FEF08C021E032
:1003B00030E005C023E030E002C022E030E0C901B7
:1003C00008958EE00E94820A9C018D5D90400B97FB
:1003D00018F424E030E017C0C9018C5291400B970B
:1003E00018F423E030E00FC0C9018B5891400B97FF
:1003F00018F422E030E007C0235B32402B30310597
:1004000078F421E030E080919801909199012817CB
:10041000390731F030939901209398010E9493019C
:10042000089582E791E06EEC7FEF0E940605089543
:1004300082E791E062E370E00E940605089582E79A
:1004400091E046E950E060E070E00E94680480912D
:100450009801909199018230910589F0833091053E
:100460001CF40197B9F406C08330910541F004975C
:1004700089F40AC082E791E064E47DEF09C082E775
:1004800091E06AE47CEF04C082E791E066E77DEFEB
:100490000E94060582E791E04CE251E060E070E0E6
:1004A0000E946804089582E791E046E950E060E028
:1004B00070E00E94680480919801909199018330C6
:1004C000910551F08430910539F0029759F482E793
:1004D00091E066EB73E004C082E791E064E873E0CA
:1004E0000E94060582E791E04CE251E060E070E096
:1004F0000E94680408950F931F930E94B0019C010D
:1005000040919801509199018417950759F4809171
:100510003F01882339F080913A0190913B018F5F30
:100520009F4F91F080913D0190913E018417950776
:1005300069F580913A0190913B018F5F9F4F31F5B2
:1005400080913F01882311F18901000F111F005D87
:100550001E4FF801808161E00E94E30A6AE070E0CA
:1005600080E090E00E94E409F801808160E00E9450
:10057000E30A81E090E00E94E6008FEF9FEF909306
:100580003E0180933D0110923F013DC0FFEF2F3FA0
:100590003F07C9F180913A0190913B018F5F9F4FD6
:1005A00019F42417350779F1AAE2B1E0FD01808141
:1005B00091812817390739F1329681E0E233F80743
:1005C000B1F7E0E0F0E08D919C9111978F5F9F4F24
:1005D000A9F4EE0FFF1FE65DFE4F31832083F90182
:1005E00037FF03C0F095E195FF4FEE0FFF1FE05D71
:1005F000FE4F808161E00E94E30A05C031961296A9
:10060000E430F10501F71F910F910895FC01EE0F01
:10061000FF1FE05DFE4F808160E00E94E30A0895C5
:10062000CF93DF939C0180912A0190912B01821737
:10063000930731F48FEF9FEF90932B0180932A0162
:1006400080912C0190912D018217930731F48FEF47
:100650009FEF90932D0180932C0180912E0190911A
:100660002F018217930731F48FEF9FEF90932F01A3
:1006700080932E0180913001909131018217930770
:1006800031F48FEF9FEF9093310180933001CFEFE2
:10069000DFEFD0933B01C0933A01C9010E940603EA
:1006A00081E090E00E94E60010929D0110929C0172
:1006B00081E080933C0120913D0130913E01809189
:1006C0009801909199012817390721F4D0933E01A0
:1006D000C0933D0181E080939B0110929A01DF91CC
:1006E000CF91089520913A0130913B01809198017A
:1006F0009091990128173907D1F480919B018823A3
:1007000069F580919C0190919D018130910519F4CA
:100710000E94530205C08F5F9F4F11F40E941F0279
:1007200080913A0190913B010E9410030895821735
:1007300093074CF40E94180281E090E090939D0191
:1007400080939C0108952817390744F40E941102F0
:100750008FEF9FEF90939D0180939C0108950E94DD
:1007600029010E94E1010E947B0280913C018823C3
:1007700031F080919A01882311F00E948E008091BF
:100780003A0190913B018F5F9F4F31F080919A0128
:10079000882311F00E9472036AE070E080E090E02C
:1007A0000E94E40908958091320161E00E94E30A09
:1007B0008091340161E00E94E30A8091360161E09A
:1007C0000E94E30A8091380161E00E94E30A8CE80C
:1007D00091E060E040E00E94F2088CE891E06FE078
:1007E00071E00E94B10E06C082E791E066EF7FEFF4
:1007F0000E94060582E00E94370B892BA9F38091A5
:10080000320160E00E94E30A8091340160E00E94BE
:10081000E30A8091360160E00E94E30A809138018A
:1008200060E00E94E30A81E090E090939901809358
:1008300098018CE891E00E9429098CE891E060E23F
:1008400071E00E94B10E08950F931F938FEE92E016
:1008500040E855E260E070E00E94180C8FE060E034
:100860000E94A40A8EE060E00E94A40A82E060E098
:100870000E94A40A8091320161E00E94A40A809142
:10088000340161E00E94A40A8091360161E00E9477
:10089000A40A8091380161E00E94A40A82E791E0F5
:1008A0004CE251E060E070E00E9468040CE811E066
:1008B000C80160E142E020E00E943909C8010E94BD
:1008C00031090E9479010E94D3031F910F9108956D
:1008D000CF92DF92EF92FF920F931F936C017A01F8
:1008E0008B01FC0120853185442737FD4095542F2D
:1008F00060E67AEE80E090E00E94080FCA01B9013C
:10090000A80197010E94080FF601248335834683CE
:1009100057831F910F91FF90EF90DF90CF90089534
:100920000F931F93CF93DF93EC018B018A859B85F7
:10093000029731F56130710589F06230710524F458
:100940006115710541F01CC06230710571F06330B2
:100950007105B1F40DC08E8560E002C08E8561E046
:100960000E94E30A888961E009C08E8561E002C0C7
:100970008E8560E00E94E30A888960E00E94E30AB5
:100980008A859B850497E9F501301105A1F00230B5
:1009900011051CF4012B41F034C002301105D1F0D7
:1009A0000330110571F51DC08E8561E00E94E30AD8
:1009B000888960E006C08E8560E00E94E30A88892D
:1009C00061E00E94E30A8A8961E00E94E30A8C895F
:1009D00060E015C08E8560E00E94E30A888961E0CE
:1009E00006C08E8561E00E94E30A888960E00E946B
:1009F000E30A8A8960E00E94E30A8C8961E00E9430
:100A0000E30ADF91CF911F910F9108950F931F93E8
:100A1000CF93DF93EC011616170624F481E090E0E3
:100A20009983888377FF02C0198218828B0177FF30
:100A300046C0109501951F4F42C00E94D6092E89CD
:100A40003F89488D598D621B730B840B950B2C814C
:100A50003D814E815F81621773078407950768F3B4
:100A60000E94D6096E8B7F8B888F998F88819981A0
:100A70002C853D85019761F42F5F3F4F3D872C8783
:100A8000888599852817390771F41D861C860BC047
:100A9000232B21F4888599859D878C878C859D855E
:100AA00001979D878C87015010408C859D8564E05F
:100AB00070E00E94D30EBC01CE010E94900401158B
:100AC000110509F0BACFDF91CF911F910F910895D1
:100AD000CF92DF92EF92FF920F931F936C01842FBE
:100AE000F601158614861382128211821082168AEC
:100AF000178A108E118E7187608746875787318BD2
:100B0000208B138B028BF58AE48A61E00E94A40A91
:100B1000F601808961E00E94A40AF601828961E001
:100B20000E94A40AF601848961E00E94A40A84E07C
:100B300090E0F601938782871F910F91FF90EF90CD
:100B4000DF90CF90089581E08093E3016093C0012E
:100B50001092E1011092E20108952091BF0130E06E
:100B60008091BE01281B3109C90108954091BE0141
:100B70008091BF01481718F02FEF3FEF0AC0E42F14
:100B8000F0E0E256FE4F8081282F30E04F5F409327
:100B9000BE01C9010895E091BE018091BF01E8172F
:100BA00018F0EFEFFFEF06C0F0E0E256FE4F808155
:100BB000E82FF0E0CF01089508951092E701109218
:100BC000E60188EE93E0A0E0B0E08093E801909326
:100BD000E901A093EA01B093EB0185E491E09093E1
:100BE000E5018093E4010895CF92DF92EF92FF92A6
:100BF0000F931F93CF93DF937C016B018A01809148
:100C0000E3018823A1F0C0E0D0E00DC0D701ED9151
:100C1000FC91D601AC0FBD1F0190F081E02DC70102
:100C20006C9109952196C017D10780F304C0CB01C0
:100C3000642F0E94C106C801DF91CF911F910F91CF
:100C4000FF90EF90DF90CF900895DF93CF930F92B6
:100C5000CDB7DEB7FC0169838091E3018823C9F039
:100C60008091E201803238F081E090E093838283CA
:100C700020E030E015C08091E101E82FF0E0EF5373
:100C8000FE4F998190838F5F8093E1018093E20111
:100C900005C0CE01019661E00E94C10621E030E06E
:100CA000C9010F90CF91DF9108950F93062F809186
:100CB000C00161EC71E04091E20121E00E946C060C
:100CC0001092E1011092E2011092E3010F91089558
:100CD00061E00E94550608950F931F93582F122F1D
:100CE000413210F081E04AC08091F0018823E1F7A1
:100CF00082E08093F0010093F2018FEF80935D0218
:100D00001092180240931902A8EFB1E0FB0102C053
:100D100081918D938E2F861B8417D0F31092F10151
:100D20008091F101550F852B8093F1018091F301A2
:100D3000813041F41092F3018091F1018093BB0066
:100D400085EC01C085EE8093BC00112321F08091D9
:100D5000F0018230E1F380915D028F3F11F480E079
:100D60000DC080915D02803211F482E007C0809155
:100D70005D02803311F084E001C083E01F910F9188
:100D80000895482F613210F081E008958091F001BC
:100D9000843011F082E0089560933B02AAE1B2E052
:100DA000842F9C01F90102C081918D938E2F841BA9
:100DB0008617D0F380E008951F920F920FB60F921E
:100DC00011242F933F934F935F936F937F938F9350
:100DD0009F93AF93BF93EF93FF938091B90090E0FF
:100DE000887F90708036910509F4F2C081369105B4
:100DF000CCF58832910509F47BC089329105B4F4B1
:100E00008031910509F46FC0813191053CF4009760
:100E100009F447C1089709F04FC165C088319105B1
:100E200009F466C0809709F047C182C080349105FB
:100E300009F4A4C08134910544F48033910509F488
:100E400082C0C89709F038C189C08035910509F47E
:100E500089C08835910509F496C08834910509F058
:100E60002BC1AEC08839910509F413C189399105A8
:100E7000ECF48837910509F4ABC0893791054CF43F
:100E80008836910509F4A4C08037910509F014C192
:100E90009FC08838910509F4FCC08039910509F498
:100EA0009DC08038910509F007C198C0803B91052D
:100EB00009F4C6C0813B91054CF4803A910509F4D0
:100EC0009FC0883A910509F0F7C0BAC0803C9105EF
:100ED00009F4E3C0883C910509F4DFC0883B910523
:100EE00009F0EAC0C2C08091F1018093BB00CFC07D
:100EF0009091180280911902981768F49091180245
:100F0000E92FF0E0E850FE4F80818093BB009F5FA7
:100F100090931802BCC08091F201882309F44BC061
:100F200085ED8093BC008091BC0084FDFCCFC2C0E5
:100F300080E280935D0285ED8093BC008091BC00CF
:100F400084FDFCCFB7C080E380935D0285ED809384
:100F5000BC008091BC0084FDFCCFACC088E38093D2
:100F60005D029BC0809118029091BB00E82FF0E0D9
:100F7000E850FE4F90838F5F809318029091180283
:100F80008091190282C0809118029091BB00E82FD5
:100F9000F0E0E850FE4F90838F5F809318028091BD
:100FA000F201882341F085ED8093BC008091BC0064
:100FB00084FDFCCF7FC081E08093F30184EA6EC0A2
:100FC00085ED8093BC008091BC0084FDFCCF72C095
:100FD00083E08093F00110925C0259C080915C0222
:100FE000803208F056C080915C029091BB00E82FDF
:100FF000F0E0E45CFD4F90838F5F80935C0247C01C
:1010000080915C02803230F4E0915C02F0E0E45CBC
:10101000FD4F108285ED8093BC008091BC0084FD63
:10102000FCCF1092F00160915C02E091F601F0912A
:10103000F7018CE392E070E0099510925C022DC0FC
:1010400084E08093F00110923A0210923B02E0910A
:10105000F401F091F501099580913B02882329F470
:1010600081E080933B0210921A0290913A02E92F9C
:10107000F0E0E65EFD4F80818093BB009F5F909320
:101080003A0290913A0280913B02981710F485EC55
:1010900001C085E88093BC000FC085EC8093BC0044
:1010A00009C010925D0285ED8093BC008091BC0068
:1010B00084FDFCCF1092F001FF91EF91BF91AF91B1
:1010C0009F918F917F916F915F914F913F912F9160
:1010D0000F900FBE0F901F901895FC011382128283
:1010E00085E591E09183808364834187228713861D
:1010F0000895CF92DF92EF92FF920F931F936C01AE
:10110000062F84EEE82E81E0F82EC701F6016481F7
:101110000E94A30510E0F601838590E0082B192BAF
:10112000C701602F0E942506C7010E9468061F9113
:101130000F91FF90EF90DF90CF900895FF920F9363
:101140001F938C01F62E64600E94790881E090E084
:101150000E943D0A8BEFF822C8016F2D0E9479088A
:1011600082E390E00E943D0A1F910F91FF90089545
:10117000FF920F931F938C01F62E0E947908C801ED
:101180006F2D0E949E081F910F91FF900895EF927E
:10119000FF920F931F937C01162F042F607F642B07
:1011A0000E94B8081295107F102BC701612F0E9472
:1011B000B8081F910F91FF90EF90089541E00E94B1
:1011C000C70881E090E0089540E00E94C7080895B4
:1011D000FC016681862F846086836C60CF010E944B
:1011E000E4080895DF93CF93CDB7DEB728970FB605
:1011F000F894DEBF0FBECDBF9C01FE013196A9E57C
:10120000B1E088E00D9001928150E1F7F90180850D
:10121000841710F4482F4150E42FF0E0EE0FFF1F29
:10122000EC0FFD1F8181680F6068C9010E94E4080E
:1012300028960FB6F894DEBF0FBECDBFCF91DF91D9
:10124000089562E00E94E40880ED97E00E943D0A64
:10125000089561E00E94E40880ED97E00E943D0A55
:101260000895FC0188E08387CF0160E00E9479083F
:101270000895CF93DF93EC01423018F08D818860A0
:101280008D834887222329F0413019F48D818460B1
:101290008D8362E370E080E090E00E94E409CE017B
:1012A0006B850E94790868EE73E080E090E00E9410
:1012B000E409CE0160E30E94B80884E991E10E944C
:1012C0003D0ACE0160E30E94B80884E991E10E94E2
:1012D0003D0ACE0160E30E94B80886E990E00E94D2
:1012E0003D0ACE0160E20E94B8086D816062CE01C5
:1012F0000E94E40884E08E83CE010E94E808CE01BB
:101300000E94290982E08F83CE0166E00E94E408F2
:10131000CE010E942109DF91CF9108951F920F9273
:101320000FB60F9211242F933F938F939F93AF93F8
:10133000BF938091620290916302A0916402B09188
:101340006502309166020196A11DB11D232F2D5F0C
:101350002D3720F02D570196A11DB11D2093660257
:101360008093620290936302A0936402B09365023B
:1013700080915E0290915F02A0916002B091610243
:101380000196A11DB11D80935E0290935F02A09310
:101390006002B0936102BF91AF919F918F913F9195
:1013A0002F910F900FBE0F901F9018958FB7F89444
:1013B0002091620230916302409164025091650273
:1013C0008FBFB901CA0108959B01AC017FB7F894A2
:1013D00080915E0290915F02A0916002B0916102E3
:1013E00066B5A89B05C06F3F19F00196A11DB11D00
:1013F0007FBFBA2FA92F982F8827860F911DA11D77
:10140000B11D62E0880F991FAA1FBB1F6A95D1F713
:10141000BC012DC0FFB7F89480915E0290915F02ED
:10142000A0916002B0916102E6B5A89B05C0EF3FB4
:1014300019F00196A11DB11DFFBFBA2FA92F982F3A
:1014400088278E0F911DA11DB11DE2E0880F991F05
:10145000AA1FBB1FEA95D1F7861B970B885E9340A6
:10146000C8F2215030404040504068517C4F211517
:1014700031054105510571F60895019739F0880F3E
:10148000991F880F991F02970197F1F70895789493
:1014900084B5826084BD84B5816084BD85B5826079
:1014A00085BD85B5816085BDEEE6F0E08081816017
:1014B0008083E1E8F0E01082808182608083808117
:1014C00081608083E0E8F0E0808181608083E1EBEF
:1014D000F0E0808184608083E0EBF0E080818160D7
:1014E0008083EAE7F0E0808184608083808182608D
:1014F0008083808181608083808180688083109276
:10150000C1000895982F8E3008F09E5097708091FA
:1015100040018295880F880F807C892B80937C0006
:1015200080917A00806480937A0080917A0086FDB1
:10153000FCCF2091780040917900942F80E030E03A
:10154000282B392BC9010895CF93DF93482F50E002
:10155000CA0186569F4FFC0134914A575F4FFA01EA
:101560008491882369F190E0880F991FFC01E85964
:10157000FF4FA591B491FC01EE58FF4FC591D49156
:10158000662351F42FB7F8948C91932F909589236B
:101590008C93888189230BC0623061F42FB7F89453
:1015A0008C91932F909589238C938881832B8883AA
:1015B0002FBF06C09FB7F8948C91832B8C939FBF4D
:1015C000DF91CF910895482F50E0CA0182559F4F77
:1015D000FC012491CA0186569F4FFC0194914A5701
:1015E0005F4FFA013491332309F440C0222351F1B3
:1015F000233071F0243028F42130A1F0223011F58D
:1016000014C02630B1F02730C1F02430D9F404C022
:10161000809180008F7703C0809180008F7D8093C0
:10162000800010C084B58F7702C084B58F7D84BDE3
:1016300009C08091B0008F7703C08091B0008F7D8A
:101640008093B000E32FF0E0EE0FFF1FEE58FF4F46
:10165000A591B4912FB7F894662321F48C919095BD
:10166000892302C08C91892B8C932FBF0895682FFA
:1016700070E0CB0182559F4FFC012491CB0186562F
:101680009F4FFC0144916A577F4FFB01949199232E
:1016900019F420E030E03CC0222351F1233071F0F6
:1016A000243028F42130A1F0223011F514C0263066
:1016B000B1F02730C1F02430D9F404C0809180000B
:1016C0008F7703C0809180008F7D8093800010C051
:1016D00084B58F7702C084B58F7D84BD09C08091A9
:1016E000B0008F7703C08091B0008F7D8093B000F1
:1016F000892F90E0880F991F84589F4FFC01A59176
:10170000B4918C9120E030E0842311F021E030E0AE
:10171000C901089508951F920F920FB60F921124D8
:101720002F933F934F938F939F93EF93FF938091CA
:10173000C00082FD1DC04091C6002091A7023091DB
:10174000A8022F5F3F4F2F7330708091A9029091B4
:10175000AA022817390771F0E091A702F091A802B8
:10176000E959FD4F40833093A8022093A70202C09D
:101770008091C600FF91EF919F918F914F913F9182
:101780002F910F900FBE0F901F901895E091FB02C4
:10179000F091FC02E05CFF4F8191919120813181B9
:1017A000805C9F4F821B930B60E470E00E94D30E1D
:1017B000892B11F00E948A0B08951F920F920FB689
:1017C0000F9211242F933F938F939F93EF93FF9347
:1017D0002091EB023091EC028091ED029091EE02AB
:1017E0002817390731F48091C1008F7D8093C100A3
:1017F00014C0E091ED02F091EE02E555FD4F20811D
:101800008091ED029091EE0201968F73907090930B
:10181000EE028093ED022093C600FF91EF919F911D
:101820008F913F912F910F900FBE0F901F901895A1
:10183000AF92BF92DF92EF92FF920F931F93CF93DD
:10184000DF93EC017A018B01DD24403081EE5807F3
:1018500080E0680780E0780711F0DD24D39491E000
:10186000A92EB12CEC89FD89DD2069F0C50108A005
:1018700002C0880F991F0A94E2F7808360E079E044
:101880008DE390E005C0108260E874E88EE190E09E
:10189000A80197010E94E60E215030404040504080
:1018A000569547953795279580E12030380720F0E9
:1018B000DD2011F0DD24D6CFE889F9893083EA896B
:1018C000FB89208319A2EE89FF89408121E030E065
:1018D000C9010C8C02C0880F991F0A94E2F7482BAB
:1018E0004083EE89FF894081C9010D8C02C0880FB9
:1018F000991F0A94E2F7482B4083EE89FF894081C3
:10190000C9010E8C02C0880F991F0A94E2F7482B78
:101910004083EE89FF8980810F8C02C0220F331F24
:101920000A94E2F7209528232083DF91CF911F911D
:101930000F91FF90EF90DF90BF90AF900895DC0182
:101940001C96ED91FC911D97E05CFF4F8191919168
:1019500020813181805C9F4F821B930B60E470E09B
:101960000E94D30E0895DC011C96ED91FC911D9709
:10197000E05CFF4F20813181E054F040DF01AE5B3D
:10198000BF4F8D919C9111972817390719F42FEFAC
:101990003FEF07C08D919C91E80FF91F8081282FA0
:1019A00030E0C9010895DC011C96ED91FC911D9772
:1019B000E05CFF4F20813181E054F040DF01AE5BFD
:1019C000BF4F8D919C9111972817390719F42FEF6C
:1019D0003FEF10C08D919C911197E80FF91F208166
:1019E0008D919C91119701968F73907011969C9395
:1019F0008E9330E0C9010895DC0191968C91919706
:101A0000882339F05496ED91FC915597808186FF9B
:101A1000F9CF91961C920895CF93DF93EC01EE8558
:101A2000FF85E05CFF4F20813181E054F0402F5F63
:101A30003F4F2F733070DF01AE5BBF4F8D919C9194
:101A4000119728173907D1F3E05CFF4F808191810E
:101A5000E054F040E80FF91F6083EE85FF85E05CFD
:101A6000FF4F31832083EE89FF89208181E090E060
:101A70000F8C02C0880F991F0A94E2F7282B20834D
:101A800081E089A3EC89FD8980818064808381E085
:101A900090E0DF91CF9108951092F2021092F1023E
:101AA00088EE93E0A0E0B0E08093F3029093F4021C
:101AB000A093F502B093F60285E691E09093F002D0
:101AC0008093EF0287E692E09093FC028093FB0202
:101AD0008BEA92E09093FE028093FD0285EC90E009
:101AE000909300038093FF0284EC90E090930203B4
:101AF0008093010380EC90E09093040380930303B0
:101B000081EC90E0909306038093050382EC90E0D3
:101B1000909308038093070386EC90E090930A0368
:101B20008093090384E080930B0383E080930C038C
:101B300087E080930D0385E080930E0381E080931E
:101B40000F0308950895CF93DF930E94470A0E94E0
:101B5000A20D0E942404C6ECDBE00E94AF03209794
:101B6000E1F30E94C60BF9CFCF92DF92EF92FF9282
:101B70000F931F93CF93DF937C016B018A01C0E029
:101B8000D0E00FC0D6016D916D01D701ED91FC91B0
:101B90000190F081E02DC7010995C80FD91F0150B0
:101BA00010400115110571F7CE01DF91CF911F9102
:101BB0000F91FF90EF90DF90CF900895CF93DF9338
:101BC000EC016115710519F420E030E00FC0DB0174
:101BD0000D900020E9F71197A61BB70BE881F9815A
:101BE0000280F381E02DAD0109959C01C901DF91CF
:101BF000CF9108954F925F927F928F929F92AF9272
:101C0000BF92CF92DF92EF92FF920F931F93DF93D9
:101C1000CF93CDB7DEB7A1970FB6F894DEBF0FBE56
:101C2000CDBF2C01742ECB01223008F42AE019A27A
:101C300031E2C32ED12CCC0EDD1E822E9924AA2493
:101C4000BB24672D752FA50194010E94E60E790132
:101C50008A01C801B701A50194010E94B40E472D65
:101C6000461B0894C108D1084A3014F4405D01C0F5
:101C7000495CF6014083E114F1040105110521F0EE
:101C80007E2C5F2DC801DDCFC201B6010E94DE0DA2
:101C9000A1960FB6F894DEBF0FBECDBFCF91DF91F6
:101CA0001F910F91FF90EF90DF90CF90BF90AF907A
:101CB0009F908F907F905F904F900895CF92DF928A
:101CC000EF92FF920F931F93CF93DF93EC016A0182
:101CD0007B012115310541F4E881F9810190F08102
:101CE000E02D642F09951FC02A303105D1F477FF0C
:101CF00017C0E881F9810190F081E02D6DE209952E
:101D00008C0144275527BA014C195D096E097F09DA
:101D1000CE012AE00E94FA0D9801280F391F04C055
:101D20002AE00E94FA0D9C01C901DF91CF911F9119
:101D30000F91FF90EF90DF90CF900895EF92FF9278
:101D40000F931F937B019A010027F7FC0095102F3A
:101D5000B801A7010E945E0E1F910F91FF90EF90B6
:101D600008950E94DE0D0895629FD001739FF001D7
:101D7000829FE00DF11D649FE00DF11D929FF00D1B
:101D8000839FF00D749FF00D659FF00D9927729F52
:101D9000B00DE11DF91F639FB00DE11DF91FBD01DD
:101DA000CF011124089597FB092E07260AD077FD4D
:101DB00004D049D006D000201AF4709561957F4F69
:101DC0000895F6F7909581959F4F0895A1E21A2EF8
:101DD000AA1BBB1BFD010DC0AA1FBB1FEE1FFF1FCF
:101DE000A217B307E407F50720F0A21BB30BE40B1F
:101DF000F50B661F771F881F991F1A9469F7609566
:101E00007095809590959B01AC01BD01CF0108951F
:101E100097FB092E05260ED057FD04D0D7DF0AD038
:101E2000001C38F450954095309521953F4F4F4F09
:101E30005F4F0895F6F790958095709561957F4F67
:101E40008F4F9F4F0895AA1BBB1B51E107C0AA1FCC
:101E5000BB1FA617B70710F0A61BB70B881F991F4B
:101E60005A95A9F780959095BC01CD010895EE0F84
:0E1E7000FF1F0590F491E02D0994F894FFCF28
:101E7E0057454C434F4D4500466C6F6F723A0020EC
:101E8E002043414C4942524154494F4E2E2E2E0072
:101E9E00466C6F6F723A31004000FFFFFFFFFFFF8D
:101EAE00FFFF0700060005000400FFFF01FFFF0112
:101EBE0001000000002506F405AD05B605CB05DCD6
:101ECE000500000000DE08B40D00004000140054B0
:101EDE0000000000000C0DB40D9F0CD30CB30CFCD5
:021EEE000C00E6
:00000001FF
