:100000000C9464000C948C000C948C000C948C0068
:100010000C948C000C948C000C948C000C948C0030
:100020000C948C000C948C000C948C000C94170C89
:100030000C948C000C948C000C948C000C948C0010
:100040000C94D50C0C948C000C94D20E0C94240FB0
:100050000C948C000C948C000C948C000C948C00F0
:100060000C9421080C948C00000000002400270050
:100070002A0000000000250028002B0000000000DE
:1000800023002600290004040404040404040202DA
:100090000202020203030303030301020408102007
:1000A0004080010204081020010204081020000012
:1000B0000007000201000003040600000000000029
:1000C000000034012207931011241FBECFEFD8E0A7
:1000D000DEBFCDBF11E0A0E0B1E0ECE1F6E202C08E
:1000E00005900D92AE38B107D9F713E0AEE8B1E054
:1000F00001C01D92AA35B107E1F710E0C8ECD0E0CD
:1001000004C02297FE010E940813C23CD107C9F720
:100110000E94EA100C940C130C94000020915A01D8
:1001200030915B018FEF2F3F380781F08091BB0149
:100130009091BC012817390749F03093580120935A
:1001400057011092BE011092590108958091470104
:10015000909148018F5F9F4FD9F420E04FEF5FEF00
:1001600014C0828193818193919331E0ED34F30740
:10017000C1F75183408380914701909148018F5F7F
:100180009F4F31F42F5F243019F0E7E4F1E0E9CF1D
:1001900080914701909148019093580180935701B5
:1001A0008F5F9F4F91F0E7E4F1E08281938181932B
:1001B000919331E0ED34F307C1F78FEF9FEF918317
:1001C00080831092BE01109259010895DF93CF935E
:1001D00000D0CDB7DEB720E329832A83019721F42D
:1001E00085E6898386E68A83E0913803F0913903B6
:1001F0000280F381E02D88E393E0BE016F5F7F4FC3
:1002000042E050E009950F900F90CF91DF91089553
:10021000DF93CF9300D0CDB7DEB79C0180E3898315
:100220008A832130310521F02230310549F404C0A0
:1002300084E6898383E603C084E689838FE68A8324
:10024000E0913803F09139030280F381E02D88E3D7
:1002500093E0BE016F5F7F4F42E050E009950F9041
:100260000F90CF91DF910895EF92FF920F931F931C
:1002700082E991E00E94D30A6091450170914601A4
:1002800085E991E048E050E02AE030E009E010E044
:10029000EBE0EE2EF12C0E94AD068FEA91E067E2D2
:1002A00040E122E00E94B2091F910F91FF90EF9070
:1002B000089580E10E94C90D9C018D5993400B97D0
:1002C00018F421E030E01AC0C901855793400B971C
:1002D00018F422E030E012C0C901875F92400B970A
:1002E00018F423E030E00AC0285B32402B3031059F
:1002F00018F020E030E002C024E030E0C9010895A9
:100300008FE00E94C90D9C01855590400B9718F411
:1003100024E030E024C0C9018D5491400D97D0F005
:10032000C9018F5A90400B97A8F0C901895F91408D
:100330000B9798F0C901825991400B9770F02E5994
:1003400032402432310518F02FEF3FEF08C021E092
:1003500030E005C023E030E002C022E030E0C90117
:10036000089582E991E060E070E00E94290B81E04D
:1003700090E00E940801089582E991E064EB70E04A
:100380000E94290B82E090E00E94080108950F93DB
:100390001F93CF93DF938C0180E3F80180838183E7
:1003A00088E393E00E94E60F892BD9F064E670E0C1
:1003B00080E090E00E942B0DC0E0D0E088E393E065
:1003C0000E94E60F892B69F0C230D10551F088E315
:1003D00093E00E941A10F801EC0FFD1F8083219614
:1003E000EDCFDF91CF911F910F910895EF92FF9282
:1003F0001F93DF93CF9300D0CDB7DEB788E393E0B0
:100400000E94E60F892BD1F180E389838A8364E619
:1004100070E080E090E00E942B0D10E07E010894D7
:10042000E11CF11C09C088E393E00E941A10F70157
:10043000E10FF11D80831F5F88E393E00E94E60FC8
:10044000892B89F78981843671F48A818F3619F472
:100450001092BD0113C0833689F481E08093BD0101
:1004600080935C010BC0833649F48A81992787FD0C
:100470009095C09790935B0180935A010F900F90D5
:10048000CF91DF911F91FF90EF9008950F931F93ED
:100490000E9480019C014091BB015091BC018417D6
:1004A000950759F480915C01882339F080915701B8
:1004B000909158018F5F9F4F91F080915A019091D8
:1004C0005B018417950769F5809157019091580158
:1004D0008F5F9F4F31F580915C01882311F1890175
:1004E000000F111F035B1E4FF801808161E00E9425
:1004F0002A0E6AE070E080E090E00E942B0DF80187
:10050000808160E00E942A0E81E090E00E94E60077
:100510008FEF9FEF90935B0180935A0110925C01E3
:100520003DC0FFEF2F3F3F07C9F1809157019091E8
:1005300058018F5F9F4F19F42417350779F1A7E40D
:10054000B1E0FD01808191812817390739F1329698
:1005500081E0EF34F807B1F7E0E0F0E08D919C9195
:1005600011978F5F9F4FA9F4EE0FFF1FE95BFE4FBE
:1005700031832083F90137FF03C0F095E195FF4FE8
:10058000EE0FFF1FE35BFE4F808161E00E942A0EA9
:1005900005C031961296E430F10501F71F910F91D5
:1005A0000895FC01EE0FFF1FE35BFE4F808160E0CA
:1005B0000E942A0E0895CF93DF939C0180914701FA
:1005C000909148018217930731F48FEF9FEF90933A
:1005D0004801809347018091490190914A01821717
:1005E000930731F48FEF9FEF90934A018093490175
:1005F00080914B0190914C018217930731F48FEF5A
:100600009FEF90934C0180934B0180914D0190910D
:100610004E018217930731F48FEF9FEF90934E01B5
:1006200080934D01CFEFDFEFD0935801C093570176
:10063000C9010E94D10281E090E00E94E600109280
:10064000C0011092BF0181E08093590120915A01AD
:1006500030915B018091BB019091BC012817390753
:1006600021F4D0935B01C0935A0181E08093BE01D5
:100670001092BD01DF91CF9108951F9311E0109367
:1006800044018CE061E00E942A0E64EF71E080E09A
:1006900090E00E942B0D8CE060E00E942A0E0E94E8
:1006A000BC01109343010E941D0D60938E01709355
:1006B0008F0180939001909391011F910895CF93A2
:1006C000DF93EC018881803351F0853641F48981D4
:1006D000863629F40E943D0380E388838983DF9175
:1006E000CF9108950F931F930FEA11E0C80160E0C6
:1006F00071E00E941812C80160E041E00E94370AD0
:10070000C8016DE071E00E94181268EB7BE080E0A8
:1007100090E00E942B0DC80160E041E00E94370A82
:10072000C80165E171E00E941B1260ED77E080E096
:1007300090E00E942B0DC8010E946E0A1F910F913C
:1007400008950F931F930FEA11E0C8010E946E0AEB
:10075000C80160E040E00E94370AC80161E271E030
:100760000E9418126091BB017091BC01C8014AE05F
:1007700050E00E9405121F910F9108958EE00E9493
:10078000C90D9C018D5D90400B9718F424E030E07A
:1007900017C0C9018C5291400B9718F423E030E048
:1007A0000FC0C9018B5891400B9718F422E030E03C
:1007B00007C0235B32402B30310578F421E030E074
:1007C0008091BB019091BC012817390731F030931B
:1007D000BC012093BB010E94A103089585E991E02B
:1007E0006EEC7FEF0E944B06089585E991E062E38D
:1007F00070E00E944B06089585E991E046E950E0DB
:1008000060E070E00E94AD058091BB019091BC0159
:100810008230910589F0833091051CF40197B9F479
:1008200006C08330910541F0049789F40AC085E938
:1008300091E064E47DEF09C085E991E06AE47CEF32
:1008400004C085E991E066E77DEF0E944B0685E9EB
:1008500091E04CE251E060E070E00E94AD05089547
:1008600085E991E046E950E060E070E00E94AD0566
:100870008091BB019091BC018330910551F084308F
:10088000910539F0029759F485E991E066EB73E040
:1008900004C085E991E064E873E00E944B0685E9B5
:1008A00091E04CE251E060E070E00E94AD050895F7
:1008B00020915701309158018091BB019091BC016A
:1008C00028173907D1F48091BE01882369F58091FA
:1008D000BF019091C0018130910519F40E9430044C
:1008E00005C08F5F9F4F11F40E94FC038091570158
:1008F000909158010E94DB020895821793074CF4EF
:100900000E94F50381E090E09093C0018093BF01C5
:1009100008952817390744F40E94EE038FEF9FEFE4
:100920009093C0018093BF0108950E94F6010E9438
:10093000BE030E94460280915901882331F08091C4
:10094000BD01882311F00E948E0080915701909183
:1009500058018F5F9F4F31F08091BD01882311F0C6
:100960000E94580481E491E00E94C70181E491E073
:100970000E945F030E945901892B51F0809143012D
:10098000882331F083E090E00E9408011092430137
:10099000809144018823B9F00E941D0D20918E01A1
:1009A00030918F014091900150919101621B730B26
:1009B000840B950B685873418040904020F00E9452
:1009C000B101109244016AE070E080E090E00E9482
:1009D0002B0D089580914F0161E00E942A0E8091B5
:1009E000510161E00E942A0E8091530161E00E9452
:1009F0002A0E8091550161E00E942A0E8FEA91E053
:100A000060E040E00E94370A8FEA91E068E271E01E
:100A10000E94181206C085E991E066EF7FEF0E9400
:100A20004B0682E00E947E0E892BA9F380914F0134
:100A300060E00E942A0E8091510160E00E942A0E1F
:100A40008091530160E00E942A0E8091550160E080
:100A50000E942A0E81E090E09093BC018093BB013C
:100A60008FEA91E00E946E0A8FEA91E069E371E0FB
:100A70000E94181208951F9388E393E040E855E21E
:100A800060E070E00E945F0F8FE060E00E94EB0D7D
:100A90008EE060E00E94EB0D82E060E00E94EB0DD2
:100AA00080914F0161E00E94EB0D8091510161E066
:100AB0000E94EB0D8091530161E00E94EB0D80914B
:100AC000550161E00E94EB0D85E991E04CE251E0B7
:100AD00060E070E00E94AD058FEA91E060E142E0E5
:100AE00020E00E947E0A8FEA91E00E94760A0E942E
:100AF00072030E94EA048CE061E00E94EB0D80E149
:100B000060E00E94EB0D82E991E063E070E00E94FA
:100B1000100C88E393E040E855E260E070E00E944A
:100B20005F0F0E94B10110E08CE061E00E942A0E8C
:100B300064E670E080E090E00E942B0D8CE060E0C5
:100B40000E942A0E64E670E080E090E00E942B0D87
:100B50001F5F153049F71F910895CF92DF92EF92F2
:100B6000FF920F931F936C017A018B01FC0120858A
:100B70003185442737FD4095542F60E67AEE80E0BA
:100B800090E00E94D712CA01B901A80197010E9402
:100B9000D712F60124833583468357831F910F9123
:100BA000FF90EF90DF90CF9008950F931F93CF9316
:100BB000DF93EC018B018A859B85029731F56130CB
:100BC000710589F06230710524F46115710541F0F9
:100BD0001CC06230710571F063307105B1F40DC055
:100BE0008E8560E002C08E8561E00E942A0E8889B1
:100BF00061E009C08E8561E002C08E8560E00E94E0
:100C00002A0E888960E00E942A0E8A859B850497B7
:100C1000E9F501301105A1F0023011051CF4012B9A
:100C200041F034C002301105D1F00330110571F5E7
:100C30001DC08E8561E00E942A0E888960E006C092
:100C40008E8560E00E942A0E888961E00E942A0E4B
:100C50008A8961E00E942A0E8C8960E015C08E8529
:100C600060E00E942A0E888961E006C08E8561E0FE
:100C70000E942A0E888960E00E942A0E8A8960E01C
:100C80000E942A0E8C8961E00E942A0EDF91CF918A
:100C90001F910F9108950F931F93CF93DF93EC0152
:100CA0001616170624F481E090E09983888377FF75
:100CB00002C0198218828B0177FF46C010950195FA
:100CC0001F4F42C00E941D0D2E893F89488D598DAE
:100CD000621B730B840B950B2C813D814E815F81D0
:100CE000621773078407950768F30E941D0D6E8BCA
:100CF0007F8B888F998F888199812C853D8501977D
:100D000061F42F5F3F4F3D872C8788859985281791
:100D1000390771F41D861C860BC0232B21F48885AE
:100D200099859D878C878C859D8501979D878C876C
:100D3000015010408C859D8564E070E00E94A212F5
:100D4000BC01CE010E94D5050115110509F0BACFED
:100D5000DF91CF911F910F910895CF92DF92EF9283
:100D6000FF920F931F936C01842FF6011586148652
:100D70001382128211821082168A178A108E118EA7
:100D80007187608746875787318B208B138B028B47
:100D9000F58AE48A61E00E94EB0DF601808961E04A
:100DA0000E94EB0DF601828961E00E94EB0DF601D5
:100DB000848961E00E94EB0D84E090E0F601938766
:100DC00082871F910F91FF90EF90DF90CF90089551
:100DD00081E0809306026093E30110920402109276
:100DE000050208952091E20130E08091E101281B85
:100DF0003109C90108954091E1018091E20148174C
:100E000018F02FEF3FEF0AC0E42FF0E0EF53FE4F52
:100E10008081282F30E04F5F4093E101C9010895A0
:100E2000E091E1018091E201E81718F0EFEFFFEFA8
:100E300006C0F0E0EF53FE4F8081E82FF0E0CF01D5
:100E40000895089510920A021092090288EE93E024
:100E5000A0E0B0E080930B0290930C02A0930D02EF
:100E6000B0930E0282E691E090930802809307020D
:100E70000895CF92DF92EF92FF920F931F93CF933B
:100E8000DF937C016B018A01809106028823A1F027
:100E9000C0E0D0E00DC0D701ED91FC91D601AC0FC0
:100EA000BD1F0190F081E02DC7016C91099521963D
:100EB000C017D10780F304C0CB01642F0E9406083D
:100EC000C801DF91CF911F910F91FF90EF90DF90BC
:100ED000CF900895DF93CF930F92CDB7DEB7FC018B
:100EE0006983809106028823C9F0809105028032CF
:100EF00038F081E090E09383828320E030E015C0F9
:100F000080910402E82FF0E0EC51FE4F998190832C
:100F10008F5F809304028093050205C0CE01019685
:100F200061E00E94060821E030E0C9010F90CF91F6
:100F3000DF9108950F93062F8091E30164EE71E035
:100F40004091050221E00E94B10710920402109224
:100F50000502109206020F91089561E00E949A071F
:100F600008950F931F93582F122F413210F081E0F4
:100F70004AC0809113028823E1F782E08093130234
:100F8000009315028FEF8093800210923B024093F2
:100F90003C02ABE1B2E0FB0102C081918D938E2F48
:100FA000861B8417D0F31092140280911402550FFF
:100FB000852B8093140280911602813041F41092A7
:100FC0001602809114028093BB0085EC01C085EE6F
:100FD0008093BC00112321F0809113028230E1F351
:100FE000809180028F3F11F480E00DC080918002DB
:100FF000803211F482E007C080918002803311F0CA
:1010000084E001C083E01F910F910895482F613261
:1010100010F081E0089580911302843011F082E095
:10102000089560935E02ADE3B2E0842F9C01F90164
:1010300002C081918D938E2F841B8617D0F380E0A0
:1010400008951F920F920FB60F9211242F933F9382
:101050004F935F936F937F938F939F93AF93BF93C0
:10106000EF93FF938091B90090E0887F9070803675
:10107000910509F4F2C081369105CCF588329105CD
:1010800009F47BC089329105B4F48031910509F4EB
:101090006FC0813191053CF4009709F447C108976E
:1010A00009F04FC165C08831910509F466C0809789
:1010B00009F047C182C08034910509F4A4C081348D
:1010C000910544F48033910509F482C0C89709F072
:1010D00038C189C08035910509F489C088359105EA
:1010E00009F496C08834910509F02BC1AEC0883947
:1010F000910509F413C189399105ECF488379105FC
:1011000009F4ABC0893791054CF48836910509F490
:10111000A4C08037910509F014C19FC0883891059B
:1011200009F4FCC08039910509F49DC0803891050F
:1011300009F007C198C0803B910509F4C6C0813B06
:1011400091054CF4803A910509F49FC0883A9105C5
:1011500009F0F7C0BAC0803C910509F4E3C0883CAF
:10116000910509F4DFC0883B910509F0EAC0C2C0CF
:10117000809114028093BB00CFC090913B0280917C
:101180003C02981768F490913B02E92FF0E0E55E8D
:10119000FD4F80818093BB009F5F90933B02BCC05A
:1011A00080911502882309F44BC085ED8093BC0023
:1011B0008091BC0084FDFCCFC2C080E2809380029D
:1011C00085ED8093BC008091BC0084FDFCCFB7C04E
:1011D00080E38093800285ED8093BC008091BC0009
:1011E00084FDFCCFACC088E3809380029BC08091DB
:1011F0003B029091BB00E82FF0E0E55EFD4F90834D
:101200008F5F80933B0290913B0280913C0282C0B1
:1012100080913B029091BB00E82FF0E0E55EFD4F2E
:1012200090838F5F80933B0280911502882341F069
:1012300085ED8093BC008091BC0084FDFCCF7FC015
:1012400081E08093160284EA6EC085ED8093BC0035
:101250008091BC0084FDFCCF72C083E080931302B8
:1012600010927F0259C080917F02803208F056C0F0
:1012700080917F029091BB00E82FF0E0E15AFD4F92
:1012800090838F5F80937F0247C080917F0280327E
:1012900030F4E0917F02F0E0E15AFD4F108285EDDD
:1012A0008093BC008091BC0084FDFCCF109213029F
:1012B00060917F02E0911902F0911A028FE592E0AD
:1012C00070E0099510927F022DC084E08093130294
:1012D00010925D0210925E02E0911702F0911802E6
:1012E000099580915E02882329F481E080935E0253
:1012F00010923D0290915D02E92FF0E0E35CFD4F1A
:1013000080818093BB009F5F90935D0290915D020E
:1013100080915E02981710F485EC01C085E88093F7
:10132000BC000FC085EC8093BC0009C01092800205
:1013300085ED8093BC008091BC0084FDFCCF1092B1
:101340001302FF91EF91BF91AF919F918F917F9188
:101350006F915F914F913F912F910F900FBE0F9022
:101360001F901895FC011382128282E791E091830D
:10137000808364834187228713860895CF92DF920A
:10138000EF92FF920F931F936C01062F87E0E82ED8
:1013900082E0F82EC701F60164810E94E80610E0A1
:1013A000F601838590E0082B192BC701602F0E945E
:1013B0006A07C7010E94AD071F910F91FF90EF9040
:1013C000DF90CF900895FF920F931F938C01F62E1C
:1013D00064600E94BE0981E090E00E94840D8BEF62
:1013E000F822C8016F2D0E94BE0982E390E00E949E
:1013F000840D1F910F91FF900895FF920F931F93FB
:101400008C01F62E0E94BE09C8016F2D0E94E309CF
:101410001F910F91FF900895EF92FF920F931F93EA
:101420007C01162F042F607F642B0E94FD0912950A
:10143000107F102BC701612F0E94FD091F910F9192
:10144000FF90EF90089541E00E940C0A81E090E047
:10145000089540E00E940C0A0895FC016681862FE1
:10146000846086836C60CF010E94290A0895DF930F
:10147000CF93CDB7DEB728970FB6F894DEBF0FBE77
:10148000CDBF9C01FE013196A6E7B1E088E00D904A
:1014900001928150E1F7F9018085841710F4482FFB
:1014A0004150E42FF0E0EE0FFF1FEC0FFD1F818194
:1014B000680F6068C9010E94290A28960FB6F8943F
:1014C000DEBF0FBECDBFCF91DF91089562E00E94D5
:1014D000290A80ED97E00E94840D089561E00E9442
:1014E000290A80ED97E00E94840D0895FC0188E0B0
:1014F0008387CF0160E00E94BE090895CF93DF93F8
:10150000EC01423018F08D8188608D83488722235A
:1015100029F0413019F48D8184608D8362E370E09D
:1015200080E090E00E942B0DCE016B850E94BE09E9
:1015300068EE73E080E090E00E942B0DCE0160E346
:101540000E94FD0984E991E10E94840DCE0160E3CF
:101550000E94FD0984E991E10E94840DCE0160E3BF
:101560000E94FD0986E990E00E94840DCE0160E2B0
:101570000E94FD096D816062CE010E94290A84E00B
:101580008E83CE010E942D0ACE010E946E0A82E057
:101590008F83CE0166E00E94290ACE010E94660A6E
:1015A000DF91CF910895FC01809181028C3090F4FD
:1015B00080838F5F80938102815090E0FC01EE0F69
:1015C000FF1FE80FF91FEE57FD4F88EB9BE092835A
:1015D000818308958FEF80830895FC0120812C3052
:1015E000B8F58181992787FD909548E850E0481B20
:1015F000590B440F551F440F551F6417750784F08E
:101600008281992787FD909548E552E0481B590B48
:10161000440F551F440F551F641775070CF4AB0199
:1016200042505040CA01AA2797FDA095BA2F880FB3
:10163000991FAA1FBB1F4FB7F89430E0F901EE0FB6
:10164000FF1FE20FF31FEE57FD4F928381834FBFC1
:101650000895AF92BF92CF92DF92EF92FF920F93D5
:101660001F93CF93DF93EC019B0182E060327807F8
:101670000CF048C077FF03C020E030E005C0653BB8
:10168000710514F024EB30E000D000D0B9018827B8
:1016900077FD8095982F2981332727FD3095E8E83D
:1016A000AE2EB12CA21AB30AAA0CBB1CAA0CBB1CEE
:1016B000CC24B7FCC094DC2CEA81FF27E7FDF09531
:1016C00028E532E02E1B3F0B220F331F220F331F62
:1016D000442737FD4095542FEDB7FEB72183328361
:1016E0004383548320E030E040E050E004EBE02E00
:1016F000F12C012D112D0E942E129B010F900F90A5
:101700000F900F90CE01B9010E94ED0ADF91CF91A9
:101710001F910F91FF90EF90DF90CF90BF90AF900F
:101720000895CF92DF92EF92FF921F93CF93DF93B2
:10173000EC01162F7A01690188818C3008F064C0B1
:10174000862F61E00E94EB0D888190E0FC01EE0F96
:10175000FF1FE80FF91FEE57FD4F1F738081807C3C
:10176000812B808380E292E08E199F0964E070E013
:101770000E94A212698380E699E08C199D0964E0B9
:1017800070E00E94A2126A83A8818A2F6CE00E94F6
:101790009612682F70E0AB01440F551F460F571F7C
:1017A000440F551F440F551F20E030E0C901840F3E
:1017B000951FFC01EE0FFF1FE80FF91FEE57FD4FBD
:1017C000808186FD15C02F5F3F4F2C30310571F7AA
:1017D00024C01092800082E08093810010928500E6
:1017E00010928400B19A80916F00826080936F00A4
:1017F0008A2F90E0FC01EE0FFF1FE80FF91FEE5754
:10180000FD4F8081806480838881DF91CF911F911B
:10181000FF90EF90DF90CF900895672BD1F2E8CF43
:1018200040E252E020E639E00E94910B08951F92B9
:101830000F920FB60F9211242F933F934F935F9304
:101840006F937F938F939F93AF93BF93EF93FF9388
:101850008091A60287FF05C0109285001092840037
:101860002BC02091A602332727FD3095809181025D
:1018700090E02817390704F58091A602992787FD83
:101880009095FC01EE0FFF1FE80FF91FEE57FD4F7B
:10189000808186FF11C08091A602992787FD9095CF
:1018A000FC01EE0FFF1FE80FF91FEE57FD4F80817F
:1018B0008F7360E00E942A0E8091A6028F5F809352
:1018C000A6022091A602332727FD30958091810240
:1018D00090E0281739070CF04EC08091A6028C309A
:1018E0000CF049C020918400309185008091A602BF
:1018F000992787FD9095FC01EE0FFF1FE80FF91F58
:10190000EE57FD4F81819281280F391F3093890056
:10191000209388008091A602992787FD9095FC016D
:10192000EE0FFF1FE80FF91FEE57FD4F808186FF76
:101930002BC08091A602992787FD9095FC01EE0FA0
:10194000FF1FE80FF91FEE57FD4F80818F7361E095
:101950000E942A0E19C080E49CE905C08091840091
:1019600090918500049690938900809388008FEF72
:101970008093A60209C0809184009091850004960E
:1019800080549C4940F3EACFFF91EF91BF91AF9112
:101990009F918F917F916F915F914F913F912F9187
:1019A0000F900FBE0F901F9018951F920F920FB6B9
:1019B0000F9211242F933F938F939F93AF93BF93D5
:1019C0008091AB029091AC02A091AD02B091AE02B9
:1019D0003091AF020196A11DB11D232F2D5F2D3730
:1019E00020F02D570196A11DB11D2093AF028093C9
:1019F000AB029093AC02A093AD02B093AE02809183
:101A0000A7029091A802A091A902B091AA02019602
:101A1000A11DB11D8093A7029093A802A093A902D3
:101A2000B093AA02BF91AF919F918F913F912F9157
:101A30000F900FBE0F901F9018958FB7F8942091BC
:101A4000AB023091AC024091AD025091AE028FBF1B
:101A5000B901CA0108959B01AC017FB7F894809148
:101A6000A7029091A802A091A902B091AA0266B51E
:101A7000A89B05C06F3F19F00196A11DB11D7FBF46
:101A8000BA2FA92F982F8827860F911DA11DB11D50
:101A900062E0880F991FAA1FBB1F6A95D1F7BC018E
:101AA0002DC0FFB7F8948091A7029091A802A09151
:101AB000A902B091AA02E6B5A89B05C0EF3F19F0B4
:101AC0000196A11DB11DFFBFBA2FA92F982F8827FE
:101AD0008E0F911DA11DB11DE2E0880F991FAA1F55
:101AE000BB1FEA95D1F7861B970B885E9340C8F21F
:101AF000215030404040504068517C4F2115310505
:101B00004105510571F60895019739F0880F991F25
:101B1000880F991F02970197F1F70895789484B57B
:101B2000826084BD84B5816084BD85B5826085BDD9
:101B300085B5816085BDEEE6F0E0808181608083BF
:101B4000E1E8F0E0108280818260808380818160A2
:101B50008083E0E8F0E0808181608083E1EBF0E069
:101B6000808184608083E0EBF0E08081816080830D
:101B7000EAE7F0E0808184608083808182608083F6
:101B80008081816080838081806880831092C10021
:101B90000895982F8E3008F09E50977080915D01C7
:101BA0008295880F880F807C892B80937C008091A0
:101BB0007A00806480937A0080917A0086FDFCCF61
:101BC0002091780040917900942F80E030E0282B1C
:101BD000392BC9010895CF93DF93482F50E0CA01F4
:101BE00086569F4FFC0134914A575F4FFA0184910A
:101BF000882369F190E0880F991FFC01E859FF4F95
:101C0000A591B491FC01EE58FF4FC591D491662384
:101C100051F42FB7F8948C91932F909589238C933E
:101C2000888189230BC0623061F42FB7F8948C91BE
:101C3000932F909589238C938881832B88832FBF42
:101C400006C09FB7F8948C91832B8C939FBFDF9134
:101C5000CF910895482F50E0CA0182559F4FFC0153
:101C60002491CA0186569F4FFC0194914A575F4FB9
:101C7000FA013491332309F440C0222351F1233077
:101C800071F0243028F42130A1F0223011F514C075
:101C90002630B1F02730C1F02430D9F404C080914F
:101CA00080008F7703C0809180008F7D80938000BB
:101CB00010C084B58F7702C084B58F7D84BD09C004
:101CC0008091B0008F7703C08091B0008F7D8093AA
:101CD000B000E32FF0E0EE0FFF1FEE58FF4FA5918D
:101CE000B4912FB7F894662321F48C9190958923B1
:101CF00002C08C91892B8C932FBF0895682F70E0C0
:101D0000CB0182559F4FFC012491CB0186569F4FFA
:101D1000FC0144916A577F4FFB019491992319F478
:101D200020E030E03CC0222351F1233071F0243018
:101D300028F42130A1F0223011F514C02630B1F082
:101D40002730C1F02430D9F404C0809180008F770F
:101D500003C0809180008F7D8093800010C084B587
:101D60008F7702C084B58F7D84BD09C08091B0009B
:101D70008F7703C08091B0008F7D8093B000892F52
:101D800090E0880F991F84589F4FFC01A591B49152
:101D90008C9120E030E0842311F021E030E0C90193
:101DA000089508951F920F920FB60F9211242F934A
:101DB0003F934F938F939F93EF93FF938091C00036
:101DC00082FD1DC04091C6002091F0023091F102C9
:101DD0002F5F3F4F2F7330708091F2029091F3028A
:101DE0002817390771F0E091F002F091F102E05507
:101DF000FD4F40833093F1022093F00202C08091A6
:101E0000C600FF91EF919F918F914F913F912F913C
:101E10000F900FBE0F901F901895E0914403F09122
:101E20004503E05CFF4F8191919120813181805C7D
:101E30009F4F821B930B60E470E00E94A212892BDB
:101E400011F00E94D10E08951F920F920FB60F92BB
:101E500011242F933F938F939F93EF93FF932091A0
:101E6000340330913503809136039091370328175E
:101E7000390731F48091C1008F7D8093C10014C077
:101E8000E0913603F0913703EC50FD4F20818091B3
:101E900036039091370301968F73907090933703B8
:101EA000809336032093C600FF91EF919F918F910D
:101EB0003F912F910F900FBE0F901F901895AF92EA
:101EC000BF92DF92EF92FF920F931F93CF93DF9316
:101ED000EC017A018B01DD24403081EE580780E06F
:101EE000680780E0780711F0DD24D39491E0A92EF3
:101EF000B12CEC89FD89DD2069F0C50108A002C084
:101F0000880F991F0A94E2F7808360E079E08DE3FF
:101F100090E005C0108260E874E88EE190E0A801CE
:101F200097010E94B51221503040404050405695D4
:101F300047953795279580E12030380720F0DD2040
:101F400011F0DD24D6CFE889F9893083EA89FB894D
:101F5000208319A2EE89FF89408121E030E0C90188
:101F60000C8C02C0880F991F0A94E2F7482B40831B
:101F7000EE89FF894081C9010D8C02C0880F991F2D
:101F80000A94E2F7482B4083EE89FF894081C9011A
:101F90000E8C02C0880F991F0A94E2F7482B4083E9
:101FA000EE89FF8980810F8C02C0220F331F0A94B3
:101FB000E2F7209528232083DF91CF911F910F9185
:101FC000FF90EF90DF90BF90AF900895DC011C96DA
:101FD000ED91FC911D97E05CFF4F819191912081E3
:101FE0003181805C9F4F821B930B60E470E00E9404
:101FF000A2120895DC011C96ED91FC911D97E05C06
:10200000FF4F20813181E054F040DF01AE5BBF4FD4
:102010008D919C9111972817390719F42FEF3FEFF5
:1020200007C08D919C91E80FF91F8081282F30E027
:10203000C9010895DC011C96ED91FC911D97E05CAF
:10204000FF4F20813181E054F040DF01AE5BBF4F94
:102050008D919C9111972817390719F42FEF3FEFB5
:1020600010C08D919C911197E80FF91F20818D91DF
:102070009C91119701968F73907011969C938E93FB
:1020800030E0C9010895DC0191968C9191978823E5
:1020900039F05496ED91FC915597808186FFF9CFE8
:1020A00091961C920895CF93DF93EC01EE85FF8506
:1020B000E05CFF4F20813181E054F0402F5F3F4FC3
:1020C0002F733070DF01AE5BBF4F8D919C911197E4
:1020D00028173907D1F3E05CFF4F80819181E054EC
:1020E000F040E80FF91F6083EE85FF85E05CFF4F4D
:1020F00031832083EE89FF89208181E090E00F8C7D
:1021000002C0880F991F0A94E2F7282B208381E0F0
:1021100089A3EC89FD8980818064808381E090E0DF
:10212000DF91CF91089510923B0310923A0388EE0D
:1021300093E0A0E0B0E080933C0390933D03A09334
:102140003E03B0933F0382E891E09093390380937C
:10215000380380EB92E0909345038093440384EF2F
:1021600092E0909347038093460385EC90E0909330
:1021700049038093480384EC90E090934B03809351
:102180004A0380EC90E090934D0380934C0381ECE4
:1021900090E090934F0380934E0382EC90E09093F5
:1021A00051038093500386EC90E090935303809307
:1021B000520384E08093540383E08093550387E0C7
:1021C0008093560385E08093570381E08093580302
:1021D00008950895CF93DF930E948E0D0E94E91019
:1021E0000E943B05CDE0DFE00E9495042097E1F3DB
:1021F0000E940D0FF9CFCF92DF92EF92FF920F93D3
:102200001F93CF93DF937C016B018A01C0E0D0E084
:102210000FC0D6016D916D01D701ED91FC91019038
:10222000F081E02DC7010995C80FD91F015010405A
:102230000115110571F7CE01DF91CF911F910F911B
:10224000FF90EF90DF90CF900895EF92FF920F9361
:102250001F938C01DC01ED91FC910190F081E02D48
:102260006DE009957C01D801ED91FC910190F08120
:10227000E02DC8016AE009959C012E0D3F1DC901A2
:102280001F910F91FF90EF900895CF93DF93EC0192
:102290006115710519F420E030E00FC0DB010D90ED
:1022A0000020E9F71197A61BB70BE881F98102809E
:1022B000F381E02DAD0109959C01C901DF91CF911A
:1022C00008954F925F927F928F929F92AF92BF92AA
:1022D000CF92DF92EF92FF920F931F93DF93CF93F2
:1022E000CDB7DEB7A1970FB6F894DEBF0FBECDBF56
:1022F0002C01742ECB01223008F42AE019A231E21D
:10230000C32ED12CCC0EDD1E822E9924AA24BB24F0
:10231000672D752FA50194010E94B51279018A01DC
:10232000C801B701A50194010E947712472D461BF1
:102330000894C108D1084A3014F4405D01C0495CDA
:10234000F6014083E114F1040105110521F07E2C12
:102350005F2DC801DDCFC201B6010E944511A196D3
:102360000FB6F894DEBF0FBECDBFCF91DF911F91A6
:102370000F91FF90EF90DF90CF90BF90AF909F9024
:102380008F907F905F904F900895CF92DF92EF9261
:10239000FF920F931F93CF93DF93EC016A017B01B0
:1023A0002115310541F4E881F9810190F081E02D9A
:1023B000642F09951FC02A303105D1F477FF17C06B
:1023C000E881F9810190F081E02D6DE209958C01A1
:1023D00044275527BA014C195D096E097F09CE01C2
:1023E0002AE00E9461119801280F391F04C02AE0D9
:1023F0000E9461119C01C901DF91CF911F910F9142
:10240000FF90EF90DF90CF900895EF92FF920F939F
:102410001F937B019A010027F7FC0095102FB8014C
:10242000A7010E94C5111F910F91FF90EF90089591
:102430000E9445110895EF92FF920F931F937C0124
:102440000E9445118C01C7010E942511080F191F18
:10245000C8011F910F91FF90EF9008952F923F9226
:102460004F925F926F927F928F929F92AF92BF92A4
:10247000CF92DF92EF92FF920F931F93DF93CF9350
:10248000CDB7DEB73B014C0119012A016D897E8968
:102490008F89988D6A197B098C099D09621A730AC4
:1024A000840A950AA40193010E947712E218F308A6
:1024B00004091509A80197010E94D7122A0D3B1D96
:1024C0004C1D5D1DB901CA01CF91DF911F910F9184
:1024D000FF90EF90DF90CF90BF90AF909F908F9044
:1024E0007F906F905F904F903F902F900895629FE4
:1024F000D001739FF001829FE00DF11D649FE00DFC
:10250000F11D929FF00D839FF00D749FF00D659F5C
:10251000F00D9927729FB00DE11DF91F639FB00D5B
:10252000E11DF91FBD01CF0111240895991B79E028
:1025300004C0991F961708F0961B881F7A95C9F753
:102540008095089597FB092E07260AD077FD04D0C1
:1025500049D006D000201AF4709561957F4F0895F8
:10256000F6F7909581959F4F0895A1E21A2EAA1B28
:10257000BB1BFD010DC0AA1FBB1FEE1FFF1FA21733
:10258000B307E407F50720F0A21BB30BE40BF50B30
:10259000661F771F881F991F1A9469F760957095B9
:1025A000809590959B01AC01BD01CF01089597FBEB
:1025B000092E05260ED057FD04D0D7DF0AD0001C07
:1025C00038F450954095309521953F4F4F4F5F4FD0
:1025D0000895F6F790958095709561957F4F8F4F90
:1025E0009F4F0895AA1BBB1B51E107C0AA1FBB1F29
:1025F000A617B70710F0A61BB70B881F991F5A958F
:10260000A9F780959095BC01CD010895EE0FFF1FAD
:0C2610000590F491E02D0994F894FFCFA0
:10261C0020202020456C6576616C6F720057656CCC
:10262C00636F6D65004C434420444953504C4159F1
:10263C0000466C6F6F723A00202043414C49425265
:10264C004154494F4E2E2E2E00466C6F6F723A310C
:10265C0000303001014000FFFFFFFFFFFFFFFF07CD
:10266C0000060005000400FFFF01FFFF0101000050
:10267C0000006A073907F206FB0610072107000065
:10268C000000230AFB10000040001400540000005E
:0E269C0000005310FB10E60F1A10FA0F431047
:00000001FF
